:020000040800F2
:10000000F8770010F50200087F2C03086D2C030818
:10001000812C03088D2C0308992C03080000000094
:10002000000000000000000000000000A52C0308F4
:10003000A72C030800000000313B0308693B0308BC
:1000400089010008272D0308312D0308392D0308E5
:10005000C5B0030889010008B52C0308BB2C0308B0
:10006000C12C0308C72C0308CD2C0308455A0308EC
:10007000555A0308655A0308755A0308855A030838
:10008000955A0308A55A0308890100088901000848
:100090005D7A0308637A0308697A0308D32C03089E
:1000A0004D2D0308532D0308652D03086B2D030800
:1000B000712D0308772D03087D2D0308D72D030824
:1000C000DD2D0308E32D0308E92D0308890100084D
:1000D00089010008B32D0308B92D0308BF2D0308BB
:1000E000F72C03082B2D030889010008890100085B
:1000F000A92D030889010008AF2D03088901000814
:100100008901000889010008852D0308890100087C
:10011000C52D0308CB2D03089D2D0308A32D03082F
:10012000B55A0308C55A0308D55A0308E55A030807
:10013000F55A0308890100088901000889010008AF
:10014000890100088901000889010008A92C030819
:10015000055B0308155B0308D12D0308890100081E
:10016000EF2D0308F52D0308890100088901000817
:1001700089010008890100088901000800000000C9
:08018000890100088901000853
:10018800FEE700000E4AD2F8883043F47003C2F844
:1001980088300C4B1A68002142F001021A609960FD
:1001A8001A6822F0A85222F410221A604FF48052E2
:1001B800DA601A6822F480221A609961704700BFD9
:1001C80000ED00E0001002402DE9F041BAB0404DCA
:1001D8001022002103A827F065FE2422002108A888
:1001E80027F060FED5F8903023F01803C5F890305A
:1001F8001423079360230F930F23012402260293ED
:100208004FF00708282307A8CDE91438CDE916666A
:100218000D9412940994119613942CF0DDFA10B1F0
:100228002C4832F0D3F9149B139A3021DB00B3FB2E
:10023800F2F3B3FBF1F201FB1232003A1599B3FB6A
:10024800F1F118BF012202A833F070FD074608B18A
:100258002148E6E72DF0FAF8204B18934FF0805329
:1002680036934FF08063339335934FF4807339930B
:100278001823CDE91B3818A8194B2C97CDE9194438
:10028800CDE91D6631971F932CF0EAFE044608B1AC
:100298001448C6E7AB6D43F08053AB65AB6D03F014
:1002A800805301934FF40070019B2CF089F92CF0D6
:1002B800ADFD4FF47A73B0FBF3F029F04BFE042048
:1002C80029F05CFE084B83F823403AB0BDE8F08182
:1002D8000010024030C8030842C8030840680600FE
:1002E8000000110156C8030800ED00E00446DFF8DD
:1002F8002CD00B490B4A0C4B03E051F8040B42F885
:10030800040B9A42F9D300200849094A01E041F850
:10031800040B9142FBD3204632F0AEBAF8770010B6
:10032800A8190508000000204C0000204C000020FF
:100338000424002040F8044B40F8045B40F8046BA8
:1003480040F8047B40F8048B40F8049B40F804AB69
:1003580040F804BB40F804CB40F804DB684670471B
:10036800024B5A6902605861002070474C00002017
:10037800024B5A6912685A61704700BF4C0000204E
:10038800C460056146618761C0F81C80C0F8209090
:10039800C0F824A0C0F828B0C0F82CD080ED0C8B91
:1003A80080ED0E9B80ED10ABC0F808E0FFF7D8BFDA
:1003B800104908B54B690BB932F04AFA1A68586007
:1003C8004A611846C468056946698769D0F81C807F
:1003D800D0F82090D0F824A0D0F828B0D0F82CD0AD
:1003E80090ED0C8B90ED0E9B90ED10ABD0F808E0E3
:1003F800012070474C00002010B50021044600F091
:10040800B3FA18B914B120460DF0E6FB10BD00216F
:1004180000F0AABA10B50121044600F0A5FA18B9EF
:1004280014B120460DF0D8FB10BDFFF7E5BF10B59D
:1004380001220C4600F0BCFB18B914B120460DF09F
:10044800CBFB10BD00F0B4BB00F074BB2DE9F0434A
:100458002B4C864600254FF0030CD4F89C02002153
:1004680001310EEB01039A0803F00303825C5B0081
:1004780042FA03F303F00303022BF1D0D4F8A802E5
:10048800090100EB0E108E0889B300EB860603689D
:100498001A0729D1D4F8A8125A1AC2F3011E994290
:1004A8004FEA92174FEA4E0E4FEA12121CD8D4F8B0
:1004B800AC12994218D9D4F89C8218F8071041FA5E
:1004C8000EF303F003030CFA0EF9012B41EA0901BC
:1004D8000AD104EB450E3F2D08F807109ABF0135E5
:1004E800AEF8B822C4F8B4320430B042CFD12DB13E
:1004F800013D04EB4503B3F8B8E2AEE7BDE8F0838D
:100508004C00002030B51C4CD4E9A953C01AC109CD
:10051800C0F3021E6B5C012202FA0EF223EA020308
:100528006B54D4F8B02283094FEA101CB2EB901F29
:10053800D4F89C0288BFC4F8B032C15C4FEA9C0E64
:100548000CF0030303255B0005FA03F321EA03011A
:1005580000F80E100CF1010CD4F89C024FEA9C0E26
:100568000CF0030310F80E105A0041FA02F202F0E0
:100578000302022AE7D030BD4C00002021F00F0111
:1005880038B50B1A144A154C013BDB00A2FB0323B8
:100598005B0AC4E9A7030546C4F8AC129A00A1EBAC
:1005A800831101331D44073203EBD202C4F8A812A9
:1005B800C4F8A452002127F075FC002301214FF054
:1005C800FF32C4F8B0322381A4F83813C4F83C339E
:1005D800C4F8402338BD00BFF32C23FA4C00002098
:1005E800024A138901331381704700BF4C00002071
:1005F800024A1389013B1381704700BF4C00002059
:10060800024B1889003818BF012070474C000020A1
:10061800F8B51B4D2B8900220133C5F83C232B81EB
:10062800C5F8B42205F1080405F5F87654F8043F36
:100638001A071AD1D5F8A822981AC0F301119342C3
:100648004FEA901C4FEA41014FEA10100DD3D5F83C
:10065800AC22934209D2D5F89C7217F80C2042FAC2
:1006680001F303F00303012B02D0A642DED1F8BD4B
:1006780003238B401A4307F80C20FFF7E7FEF4E743
:100688004C00002089B3F8B5184E0F46051F00240A
:1006980055F8043F1A0704F101041AD1D6F8A82224
:1006A800981AC0F3011C9A424FEA90114FEA4C0C79
:1006B8004FEA10100DD8D6F8AC229A4209D9D6F8CC
:1006C8009CE21EF8012042FA0CF303F00303012B0D
:1006D80002D0A742DCD1F8BD032303FA0CF31A4376
:1006E8000EF80120FFF7B2FEF3E770474C00002038
:1006F8002DE9F04F574ED6F8A032D6F8B42285B07F
:100708009800C2B10025C6F8B452002843D000248E
:10071800D6F89C12A30804F00302CB5C52001341E4
:1007280003F00303032B3FD001348442F0D3D6F8FF
:10073800B432002BE7D170B34FF0000C65460327A5
:100748004FF001094FF0020804E0012B4AD00135AF
:10075800854220D2D6F89CE24FEA950A05F00304B8
:100768001EF80A20640042FA04F303F00303022B84
:100778000EEB950128D0032BE7D108FA04F422EAFE
:1007880004020EF80A20D6F8A032013598008542F6
:100798004FF0000CDED333890022013BC6F8B022AB
:1007A800338105B0BDE8F08F2046FFF74FFED6F83D
:1007B800A0320134B4EB830F4FEA8300A8D3D6F8F4
:1007C800B432002B9FD1B6E7BCF1000FBFD007FAB7
:1007D80004F422EA04040C70D6F8A0324FF0010C9D
:1007E8009800B4E7D6F8A402EB0805F0070B10F858
:1007F80003E0019300EBD50C4EFA0BF0C307E6D5E6
:10080800D6F8A8022901415800EB0510A9B102AA9F
:10081800B2210CF07FFBDDE9013242B10DF046FC5C
:10082800DDE902010DF012FC0DF056FC019BD6F833
:10083800A42212F803E002EB030C09FA0BFB2EEAE0
:100848000B0E8CF800E0D6F89C1211F80A205144DF
:10085800BDE700BF4C000020044B1A89002101327B
:10086800C3F8B4121A81FFF743BF00BF4C00002041
:100878003C4B2DE9F04FD3E9AA420021121BD3E9E2
:10088800A754C0E90111C0E90311C0E905110260CC
:100898004FEA840C8B460E460C460A468946884623
:1008A8008E4615F809304FEA480843FA08F303F072
:1008B8000303012B4BD0022B45D0002B3CD0013237
:1008C80094450ED04FEA920902F0030815F8093052
:1008D8004FEA480A43FA0AF313F0030301D0012B45
:1008E800DFD1012C13D0022C04D1476907F101088C
:1008F800C0F814808769A74238BF8461944511D035
:10090800012B28D04FEA920902F00308C9E70769CA
:1009180007F101088769C0F81080A74238BF8461D1
:100928009445EDD1B64500D2C66009014FEA0B17D0
:10093800C0E90117BDE8F08F0BF1010BC0F808B052
:1009480001361C46BBE7013141600134B7E701318C
:1009580041601C46B3E7B64501D2C660B6460026DC
:10096800D0E700BF4C0000202DE9F84300F10F0646
:10097800360948D06E4C2389002B44D1B4F838335B
:10098800002B0D460CBF4FF0010E4FF0000E50D15A
:10099800D4F8B002D4F8A072874231D9D4F89CC2F6
:1009A8000138013F604467440021CCF1010818E098
:1009B8004A1C964258D913F00C0F2DD18A1C964226
:1009C80040F2A68013F0300F2CD10132964240F24B
:1009D800A4803F2B10D8511C8E4240F2A38087423E
:1009E8000ED008EB000910F8013F9A07E0D013F089
:1009F8000C0F0CD10122E2E787424FF00001F0D141
:100A0800BEF1000F25D000231846BDE8F88313F087
:100A1800300F0CD10122D9E713F0300F0CBF01229F
:100A28000022D6E73F2B8CBF00210121D7E7002207
:100A3800CFE7D4E9CF239A42AAD338F031F9D4F8D2
:100A4800B002D4F8A072B84238BF4FF0010EA5D357
:100A5800D9E738F025F9D4F8B002D4F8A072874263
:100A68004FF0010E9AD8CEE74FEA8909A9EB0201A7
:100A7800012A01F1010704D109F101039B08C4F817
:100A8800B032B80807F0030E1CF800804FEA4E0E8B
:100A98000123023103FA0EF343EA080389450CF8EF
:100AA800003012D34FF0020E8808D4F89CC201F02F
:100AB80003031CF800805B000EFA03F3013143EADC
:100AC800080389450CF80030EED2D4F83C33D4F84A
:100AD800A8823344C4F83C3308EB071312011846C4
:100AE800002127F0DFF9EA074FEA071603468BD5FE
:100AF8000022D4F8A40248F80620F9080122445C30
:100B080007F00707BA40224342541846BDE8F88365
:100B18004FEA890909F10109A8E74FEA890909F1AA
:100B28000209A3E74FEA890909F103090A469DE783
:100B38004C000020034B1A8912B908B1FFF7E2BC38
:100B4800704700BF4C000020034610F00F001BD177
:100B5800164AD2F8A812994218D810B4D2F8AC4262
:100B68009C420ED95B1AD2F89C429A09C3F3011130
:100B7800A25C49000A4102F00302012A4FEA13135A
:100B880005D05DF8044B704700207047704701306E
:100B98001A18910802F00302615C520041FA02F24D
:100BA80002F00302022AF2D00001EAE74C0000201A
:100BB8002DE9F84F0E460546002800F0C0806D4C20
:100BC8002389002900F08280002B40F08280D4F82D
:100BD800A812D4F8A072A0EB01084FEA181000F18F
:100BE800010E06F10F01BEEB870F4FEA11114FEA14
:100BF800870A80F0AA80D4F89C929C4601274FEA85
:100C08009E030EF0030B19F803304FEA4B0B43FA1F
:100C18000BF303F00303022B5FD02BB90CF1010C8B
:100C280007EB0C038B4259D3B9424BD05BD3BC447E
:100C38008C451BD2D4F8A4324FEAD81813F8081000
:100C4800002A46D000F00700014101F001013046BA
:100C5800FFF78AFE0646E0B33A01294627F0DEF898
:100C6800238983BB2846FFF74DFC2CE0C21900EB13
:100C7800010C62451FD2900802F0030319F80060C6
:100C88005B004FF0020E01320EFA03F33343944532
:100C980009F800300FD99608D4F89C0202F0030333
:100CA80010F806805B000EFA03F3013243EA0803EA
:100CB80062458355EFD1CA1B1201002105EB0710CD
:100CC80027F0F0F82E463046BDE8F88F0BB9FFF74D
:100CD80019FC00263046BDE8F88F01370EF1010EE9
:100CE800F2458CD1A0E746184FEA960806F00303B0
:100CF80019F808E05B004FF0030C791A0CFA03F3BB
:100D08002EEA0303012909F8083006F101060FD07D
:100D18003844B108D4F89C7206F003037A5C5B008F
:100D28000CFA03F3013622EA030386427B54F0D11E
:100D3800D4F8B0324345C5D9C4F8B082C2E70146F9
:100D48003046BDE8F84FFFF70FBE0129BAD009B108
:100D580001276FE7D4F89C624FEA981800F0030166
:100D680016F80830490003228A4023EA020306F8ED
:100D78000830DDE74C00002010B58AB0044603A80F
:100D8800FFF776FDDDE90430039A00900749204615
:100D980000F07AFFDDE908310698079ACDE90010DE
:100DA8000349204600F070FF0AB010BD70C8030860
:100DB80094C803082DE9F84F504F5149D7F8A82295
:100DC800804600F061FFD7F8A012890000F0848007
:100DD800DFF86091DFF860A100250EE0012B55D007
:100DE8002E224849404600F04FFFD7F8A03201357F
:100DF800B5EB830F4FEA83016ED205F00306A80610
:100E08004FEA46064FEA950B0CD0D7F89C2212F809
:100E18000B30334103F00303022B35D0032BDDD114
:100E28006D22DEE78D4229D2D7F89C0210F80B20FC
:100E38003241920722D12C4605E010F80CC04CFA3A
:100E480002F2930708D1013404F003028C424FEAFE
:100E5800940C4FEA4202F0D1621B7F2A0ED92A492C
:100E68009209404600F010FFD7F8A03224F03F0561
:100E7800B5EB830F30D24FEA950B00262A0149467D
:100E8800404600F001FFC0E73D22AAE7D7F8A822B4
:100E98002B01D25852451DD01C4B9A4222D01C4BD4
:100EA8009A4223D01B4B9A421ED01B4B9A421BD00E
:100EB8001A4B9A421CD01A4B9A4219D0194B9A4293
:100EC8001AD0194B9A4215D0184B9A4214BF68226F
:100ED8004D2286E7542284E740461549BDE8F84F7D
:100EE80000F035BB4C227CE753227AE7442278E7AE
:100EF800412276E7422274E7462272E74C0000203E
:100F0800DCC8030820C90308FCC80308F03E04082D
:100F1800EC350408484A0408F8490408C8320408AB
:100F280054320408A43A0408243B0408784004080E
:100F3800F8C8030818C90308DC4B0408054A034627
:100F4800106A1A6841688A4202D3521A1A607047B6
:100F58000068F7E74C000020014441F2055388423D
:100F680004D398B2012838BF0120704710F8012B2C
:100F780003EB43135340F2E7034B044A1A6200227F
:100F8800C3F8F421704700BF4C0000203C870408D8
:100F98002DE9F04780460E46FFF7DEFF124B1C6A2C
:100FA80007460CB920461AE0D4F80C90002504F145
:100FB800180A4D4501D12468F3E7236933F8153041
:100FC800BB420ED163695B5DB3420AD15AF8250072
:100FD8003246414626F08EFF18B960682844BDE8BD
:100FE800F0870135E5E700BF4C0000202DE9F84304
:100FF80081460E46FFF7CCFF0246002840F08B8062
:10100800FF2E03D9454946480CF006F8454CD4F85C
:10101800F401751C90B1D4E97E132B448B4229D975
:101028002944FFF70FFA0746D8B90246D4F8FC114D
:10103800D4F8F401FFF706FAC4F8F471802D2F46AE
:1010480038BF80273846FFF7E2F9C4F8F401D0BB6F
:101058002846FFF7DCF9C4F8F40198BB28460CF0E1
:10106800BBFDD4F8F8312B44C4F8F831D4F8F43186
:10107800002BE3D0D4F8FC31D4F8F47131461F4486
:1010880048462B44C4F8FC31FFF766FF49468046C2
:10109800324638464FF0000926F0C0FE07F80690A1
:1010A800236AD3E90253AB4225D36D000A2D38BF1A
:1010B8000A25C5EBC5001830FFF7A9F948B9C4F8E7
:1010C800F401CBE72F460023C4F8F871C4F8FC31CB
:1010D800D0E700F11803226A026003EB850303617D
:1010E80003EB450343615368D268C0F80C9013447E
:1010F800C0E901352062236AD3E903215B6921F83D
:1011080012809E54911D236A43F82170D9680131D9
:10111800D9605B681A441046BDE8F88323C9030800
:10112800983704084C00002010B5044626F0F4FE59
:1011380001462046BDE81040FFF758BF07B50190AB
:1011480001A8FFF7FBFE019A036933F8120003B008
:101158005DF804FB07B5019001A8FFF7EFFE019BBE
:101168004269D05C03B05DF804FB07B5019001A8A3
:10117800FFF7E4FE019B063350F8230003B05DF847
:1011880004FB13B5019001A80C46FFF7D7FE019B9D
:101198004269D25C2260063350F8230002B010BDC9
:1011A8002DE9F8431D46002303600B6013602B6094
:1011B800164BDFF85C901C6A0746884616460CB149
:1011C8004C4505D12B68326813442B60BDE8F88381
:1011D8003B6801333B60E268D8F800301344C8F834
:1011E80000306269E368D1188A4207D32046FFF7C6
:1011F800ABFC2B68246803442B60E0E7336812F8E3
:10120800010B013303443360EEE700BF4C000020BC
:101218003C8704082DE9F8430D4B0E4F1C6ADFF894
:101228003880DFF838900CB1BC4201D1BDE8F883B2
:10123800E36804F1180505EB8306B54201D3246879
:10124800F1E755F8042B4146484600F01DFDF4E748
:101258004C0000203C87040828C90308201D040806
:1012680030B50023202511F8012F0AB9027030BDCE
:10127800120600F1010420D513B120230370204683
:101288000B78124A03F07F036BB9013A12F8013F59
:1012980013F0800F044600F101000BD003F07F0328
:1012A80023700123DFE712F9014B002CFBDA013B25
:1012B800DBB2E9E700F8013CE8E7012B04BF057061
:1012C80020460B7800F8013B0223CCE72FC903081E
:1012D80038B54368194403689942054610D9037B19
:1012E8001BB1084800210BF097FE01F1100424F00F
:1012F8000704083480682146FFF799F82C60A86035
:1013080038BD00BF9837040870B504460E4611462C
:101318001546FFF7DDFFD4E901302A461844314667
:1013280026F0ACFD63682B44636070BD70B54668F9
:10133800B142044628BF31460D460121FFF7C8FFD8
:10134800A368681C5919721B184426F097FD636836
:10135800A06801336360284470BD38B5012904468C
:1013680038BF01210025084621606560FFF744F871
:101378002573A06038BD38B505460C460131FFF726
:10138800ECFF6C6038BD0023C0E901320123016025
:101398000373704738B514460546FFF7DEFF024B66
:1013A8002560636038BD00BF11130008037B10B5CA
:1013B800044613B98068FFF747F80023A36010BDFF
:1013C80038B505461020FFF717F829460446FFF7F9
:1013D800C4FF204638BD10B5044648B1037B13B995
:1013E8008068FFF731F82046BDE81040FFF72CB8B9
:1013F80010BD000038B5037B04460D461BB10748F5
:1014080000210BF009FE016880682944FFF70FF8F6
:101418002368A0601D442560184438BD9837040827
:1014280038B504460D46FFF753FFD4E901301D4493
:101438006560184438BDD0E900239A4210B50446C7
:1014480002D10121FFF7D6FFD4E901320021D1549E
:10145800A06810BD10B50C460121FFF7E1FF04702C
:1014680010BD7F29F8B50C46CEB204D80121FFF78C
:10147800D7FF0670F8BD06F03F06B1F5006FC1F35F
:10148800871546F0800607D20221FFF7C9FF65F0ED
:101498003F0505704670EDE705F03F05B1F5803F63
:1014A800C1F3073745F0800508D20321FFF7B8FFDD
:1014B80067F01F07077045708670DBE70421FFF7A8
:1014C800AFFFA40C07F03F0764F00F0467F07F0735
:1014D800047047708570C670CCE738B50546084675
:1014E8000C4626F019FD214602462846BDE838403C
:1014F800FFF70ABF10B51446FFF718FF047010BDB8
:1015080010B51446FFF712FF047010BD43688B42F4
:101518002CBF591A00214160704738B5044615465A
:1015280062688A42084603D929448A4201D8606021
:1015380038BDA368521A1844194426F09FFC636802
:101548005B1B6360F4E70846114627F06BBC70B577
:10155800054608460E4626F0DFFC044620B1024642
:101568006B68286831469847204670BD2DE9F74FCB
:101578008A469DF8301091460D9A11F0DF0F064605
:10158800A2EB09022ED030290CA92A4F1ABF4FF01E
:1015980001080F464FF0100813F0800126D002EB27
:1015A800D275012A4FEA6504A2EB65052CDC0024FC
:1015B800B9F1000F05D0736830684A46514698471C
:1015C8004C44002D1ADD2C44A845C146A8BFA946A5
:1015D800736830684A463946A5EB09059847002DD7
:1015E800F2DC0BE0144F4FF01008D5E713F00104BC
:1015F8001BD1002A06DCB9F1000F19D1204603B02F
:10160800BDE8F08F25461446A346D8454246736880
:101618003068A8BF5A46394601929847019AABEB01
:10162800020BBBF1000FF0DCC2E715460C46BFE722
:101638002546C0E7281D0408391D04082DE9F04394
:1016480089B006460020119D9DF84880139F8DF8AB
:101658000F000AB381421ADA2D228DF80F20494271
:10166800109A08ACA2F10A000DF11009B1FBF3FCC5
:1016780003FB1C12092A8CBF1218303204F8012D02
:101688004C458E4661460ED07345EFD90BE0A8074E
:1016980027D52B228DF80F200029E1D130238DF892
:1016A8001F300DF11F0415F040099DF80F301CD0B4
:1016B80023B30122CDE900822B460DF10F013046FC
:1016C800FFF754FF013F814608AACDE900872B4662
:1016D800121B21463046FFF749FF484409B0BDE8D0
:1016E800F0836A07D8D52022D4E7002BECD004AACF
:1016F8009442E9D904F8013C013CE5E79946E3E75F
:101708002DE9F04F93B09046CA07DDE91E671C9D8E
:101718009DF874A0059381460C460BD48B0703D122
:101728000968814B994205D020460DF0B5FA44006E
:1017380044F0010415F0810306D1BAF1300F03D14A
:10174800BE42B8BF3E461F46204610F06AFC00283D
:101758000DF1280B1CDBA80718D52B238DF8283092
:101768000DF12903EA069DF814101FD5B8F1020FF0
:1017780010D118464FF0300C00F802CB01F1010CE3
:1017880083F801C0034611E02023E7E76907FBD48B
:101798005B46E7E7B8F1080F3DD130201870A8057F
:1017A80045BF01F10E00587001330233002015F0D7
:1017B800200F1870A3EB0B0305930EAA0CBF03466A
:1017C8002C23012F0B92C8BF45F040051022CDE90C
:1017D8000C2015F04002CDE902138DF8270007927E
:1017E80031D0CDE9008023460DAA0CA90BA810F032
:1017F800E7FA03782D2B804618D0012F40F390800C
:101808000D9C9DF82730BC42B8BF3C4603B101345B
:10181800059B1C4427E0B8F1100FC7D118464FF0BC
:10182800300C00F802CB01F1170CA9E70D9C8DF8DC
:101838002730013C012F00F101080D9470DDBC42F6
:10184800B8BF3C46E3E70AABCDE900830DAA2346BF
:101858000CA90BA810F0B4FA012F80465CDD0D9C92
:10186800BC42B8BF3C4625F00103A642069350DDB2
:1018780015F0010AA6EB04044CD12023019400932F
:101888002A49534652464846FFF770FE54460546D5
:10189800079B4FF0300ADBB19DF8273053B1002386
:1018A8000122CDE900320DF127014846FFF75EFE1F
:1018B800013E0544059B5BB100230122CDE90032BE
:1018C8005946059A4846FFF751FE059B0544F61A06
:1018D800012FC8BF3E46CDE900A6069B0D9A41469A
:1018E8004846FFF743FE05444CB1202300930023EC
:1018F8000E4901941A464846FFF738FE05440B98EE
:101908000EAB984201D0FEF79FFD284613B0BDE804
:10191800F08F00240025BBE7079C06952546DAE7EB
:10192800002406952546B7E7A03D0408C3B004087F
:101938002DE9F0431646B2078BB098465ABFC6F356
:1019480080035B012B2300930A46139BDDF8489024
:101958000746202102A80AF057FAF305044610D5D5
:10196800431C1F2B0DD800F128020DEB0204252281
:1019780004F8202C03F128026A44002102F8201CF4
:101988001C4616F040051DD09DF808302F2B4FF04F
:10199800000319D8012202A9CDE900323846FFF721
:1019A800E5FD09F1FF390546013C0DF10901CDE9D5
:1019B8000089334622463846FFF7D8FD28440BB045
:1019C800BDE8F08302A9F2E702A91D46EFE700008F
:1019D8002DE9F04F824689B0144600260B461D4675
:1019E80013F8012B82BBA94231D30B78002B00F0EE
:1019F8004381013120234FF000080A4612F8015BA9
:101A08003DB12B2D39D02CD8202D39D0212D3AD0CD
:101A180000250F4611F8012BA2F13000092835D90D
:101A28002E2A67D17A782A2A36D000220F4611F852
:101A3800010BA0F1300CBCF1090F30D80A2707FBC5
:101A4800020BABF13002F1E7252AC8D1CBE76F1AB8
:101A5800DAF80430DAF800003A4698473E44294656
:101A6800C3E72D2D05D0302DD2D148F040082B46A4
:101A780001E048F001081146BFE748F00208FAE71C
:101A880048F00408F7E748F00808F4E70A2000FBE4
:101A98000522A2F13005BCE754F8042B023722EAEC
:101AA800E27B3A786C2A08BF013797F80090B9F1C1
:101AB800000F00F0E180B9F1780F6AD8B9F1570F3B
:101AC8001BD8B9F1470F61D8B9F1440F61D9073470
:101AD80024F00704F4E8020105933AF0C7FCCDE9C5
:101AE800005B00EE100A059B424649465046FFF748
:101AF8001FFF62E04FF0FF3BD3E7A9F15802202A0D
:101B080047D801A151F822F04F1C00089B1B000880
:101B18009B1B00089B1B00089B1B00089B1B0008C5
:101B28009B1B00089B1B00089B1B00089B1B0008B5
:101B3800AD1B0008CF1B0008331C0008D71A00088B
:101B4800D71A0008D71A00089B1B00089B1B00081F
:101B58009B1B00089B1B00089B1B00089B1B000885
:101B68009B1B00089B1B0008711C0008E31B000856
:101B78009B1B00080D1C00089B1B00084F1C00083D
:101B88009B1B00089B1B00084F1C0008B9F1500F55
:101B98006AD0DAF80430DAF80000012239469847AA
:101BA80001360BE054F8042BCDE9003543463AB131
:101BB800334904225046FFF7D9FC0644791C0DE747
:101BC80030490522F6E754F8042B8DF81C20CDE99E
:101BD80000350122434607A9ECE707A954F8040B8E
:101BE8000593FFF7CEFABBF1FF3F059B014604D0F2
:101BF800079A934538BFCDF81CB0CDE90035079A50
:101C08004346D7E754F8049B0593484626F084F9E1
:101C1800BBF1FF3F059B024602D0584528BF5A46F4
:101C2800CDE9003549464346C4E7CDE9023561238D
:101C38000093CDF804800A23012254F8041B50466F
:101C4800FFF7FCFCB9E729F00F0209F101010F3A8F
:101C580001F00601D2B2CDE90235CDF80480009238
:101C6800C1F110030022E8E7CDE9023561230093B2
:101C7800CDF804801023F5E7304609B0BDE8F08FB1
:101C8800121D0408171D04080EB403B503AA52F860
:101C9800041B0192FFF79CFE02B05DF804EB03B051
:101CA80070470346007893F90020002A0ADA00F00A
:101CB8007F004022104206D113F8012F02F0C00124
:101CC800802904D0704720EA02005208F2E702F0A7
:101CD8003F0242EA8010EFE7431C184601330278BE
:101CE80002F0C002802AF8D07047034600209942CB
:101CF80000D8704711F8012D02F0C002802A18BFE1
:101D08000130F4E703460144002099421A4600D8FE
:101D18007047127802F0C002802A03F1010318BF4D
:101D28000130F2E77F289DBF024B185CC0F34000EA
:101D3800002070474A1D04087F289DBF024B185C8D
:101D4800C0F3C000002070474A1D04087F289DBFCB
:101D5800024B185CC0F38000002070474A1D04083D
:101D68007F289DBF024B185CC0F38010002070478D
:101D78004A1D04087F2809D8064B1B5C13F00C0F7A
:101D880006D1A0F15F0358425841704700207047C0
:101D9800012070474A1D04087F289DBF024B185C2C
:101DA800C0F30010002070474A1D04087F289DBF1B
:101DB800024B185CC0F34010002070474A1D04080D
:101DC80008B50246FFF7E8FF00B12032104608BD0B
:101DD80008B50246FFF7EAFF00B1203A104608BDF1
:101DE8003038092884BF20F020000738704710B524
:101DF80002460144E5240020914203D8B0FA80F05D
:101E0800400910BD12F8013B60B103F0C003802BFC
:101E180014D10138C0B2EFE71B060FD49142EDD9B7
:101E280012F8013BBF2BF7D9F72B07D8DB0803F0D3
:101E3800060344FA03F303F00300DDE70020E0E7BC
:101E4800023981420B4603D31A880239002AF8D096
:101E58000233181A40107047B2EB131FF0B504464E
:101E68004FEA13151BD9501B01EB450103F00F0373
:101E780006462546012E0F4631F8022B07D1DA40D7
:101E880004EB40042A8034F8023C33B1F0BD3A68D0
:101E9800DA4025F8022B013EECE70138F6E700208E
:101EA800F4E7F0B5059F0024D21B2646A74210D1BF
:101EB80000EB470501EB470100239A4214D105EBDB
:101EC80042031EB1012125F812100233181A4010DE
:101ED800F0BD31F8145033F814C06544354420F887
:101EE80014502E0C0134E1E731F81340344425F83E
:101EF8001340260C0133E0E7F0B40E4604990025A0
:101F0800521A2C46A9420BD100EB410506EB4106BB
:101F180000239A420FD105EB4201F0BCFFF790BFB6
:101F280036F815703C4433F81570E41B20F815405A
:101F380024140135E6E736F813100C4425F813404D
:101F480024140133E5E72DE9F043079CDDF828E088
:101F5800DDE908760239154684464FF6FF78A4EB8A
:101F6800020955B900EB42011FB1012320F81230D4
:101F78000231BDE8F043FFF763BF31F8024F013D7E
:101F88004444264405EB0904AC4296BF33F8024B9F
:101F98004FF6FF744444744486EA040E17FA8EF729
:101FA8002CF8027B4FEA144E360C3F0CD9E738B5B3
:101FB80002290446806838BF02210D4618B12368FB
:101FC800B1EB930F07D96900FEF731FA2368A060D7
:101FD80065F39F03236038BD38B504460C20FEF72F
:101FE8000BFA23682278054602F00102C3F39D002C
:101FF80023F0030313432B6063686B604000FEF714
:10200800FBF9A8602268A168C2F39D02520025F07E
:1020180005FF284638BD994210B511D313D800EBF7
:10202800410002EB410209B9084610BD30F8023DF3
:1020380032F8024D1B1B002B02DB04D10139F2E7F9
:102048004FF0FF30F1E70120EFE710B5044638B153
:102058008068FEF7F9F92046BDE81040FEF7F4B9AC
:1020680010BD38B505460C460221FFF7A0FF2B78B6
:10207800002CB4BF0122002262F300032B70AB686E
:10208800B4BF6142214618468AB220F8022B090CD7
:102098001BBF03468AB20121022118BF1A8069605A
:1020A8001A8038BD0023C0E900338360704728B127
:1020B80003789B0702D48068FEF7C6B9704738B525
:1020C80004460D464968FFF772FF2A782378A0680E
:1020D80062F3000323706A686260A9685200BDE871
:1020E800384025F09BBE0A4629B90178426062F360
:1020F800000101707047FFF7B4BF08B5FFF7D2FFC2
:10210800BDE80840FFF7EFBF920042F0020210B4AA
:1021180002600022C0E901215DF8044B1946FFF76F
:10212800E2BFF8B59DF8187014461D46042106460E
:10213800FFF73DFF22462B4627B1002D0CDA6242FD
:1021480065EB4503317867F3000131700021716058
:1021580052EA030102D1F8BD0027F3E7D6E90110DE
:102168004C1C746020F81120120C42EA03421B0C2C
:10217800EEE72DE9F3418DED010A019D0378EA0FA1
:1021880062F300030370C5F30F4313F4FF43804663
:102198000BD198F800306FF3000388F80030002363
:1021A800C8F8043002B0BDE8F081B3F5FF4FF0D0B5
:1021B800C5F3C754A4F17F03002BEADB05D1012145
:1021C80002B0BDE8F041FFF74CBFC5F31605A4F116
:1021D8006F07162B45F400054FEA271710DCC3F1EB
:1021E80017033946DD400024FFF7E1FEC8F8047004
:1021F800BC42D7D0D8F8083023F814502D0C1BE077
:10220800963C09333946241103F00F06FFF7CFFE39
:10221800C8F804702CB1D8F808006200002125F035
:1022280041FE002EE4D0D8F8083005FA06F223F86B
:102238001420C6F11006F5400134D9E72DE9F8431A
:1022480004468F18C2F35B020D46511C9846089E3F
:10225800FFF7ADFE237868F300032370AC46002235
:102268001FFA86FEBC456046626002D3401BBDE88B
:10227800F8830178A1F13003092B0CF1010C05D981
:10228800A1F14103192B12D8A1F13703B342EDD2C2
:10229800A06890468146B8F1000F0FD100EB4201CB
:1022A80013B120F812300231091A4A10DAE7A1F105
:1022B8006103192BDAD8A1F15703E7E7B9F8001041
:1022C8000EFB013329F8023B08F1FF381B0CE2E74B
:1022D800F8B5044615461E4691B1531E1E444FF0EC
:1022E800FF37E9000F3109092046FFF760FE237820
:1022F80000216FF3000323706160B5B100230AE089
:102308000127EEE732788A401343013D9BB201F181
:1023180008013E4401D00F29F4DD6268501C60605A
:10232800A068103920F81230E7E7D4E9011000EB73
:102338004101FFF785FD6060F8BD38B505780B7879
:1023480005F0010203F001030446981A08D1D1E907
:102358000132D4E90110FFF75EFEEB0748BF4042A7
:1023680038BD884210B5044601D0FFF7A8FE23788F
:102378006FF30003237010BD884210B5044601D0E6
:10238800FFF79DFE63683BB12378C3F30002C2F1F7
:10239800010262F30003237010BD88421FB5044692
:1023A80001D0FFF78CFE626862B901212046FFF771
:1023B800FEFDA268012313806360237843F00103C4
:1023C800237010E02378D9070FD56FF3000323702B
:1023D80001230093A168ADF80E3008460DF10E03F5
:1023E800FFF78AFD606004B010BD511C2046FFF75E
:1023F800DEFD01230093D4E90121ADF80E30084633
:102408000DF10E03FFF74DFD6060D6E72DE9F843A7
:102418004B6805460E46144603B12AB9314628468C
:10242800BDE8F843FFF74BBE02F10F014FEA111860
:1024380003EB1111FFF7BBFDD6E9013208EB0307E7
:10244800A96807F1004C14F00F040CF1FF3C01EBF4
:102458004C0C08BF102402EB43021946E1464FF02A
:10246800000EC4F1100401BB6FF0010253430CEBE2
:102478000300C8F101082EFA04FE4FEA480200EBF7
:10248800480840462CF803E0524225F00BFDA8F11D
:10249800020817B138F817309BB16F6032782B7883
:1024A80062F300032B70BDE8F88332F8020D40EAAE
:1024B8000E0020FA04FE29F802E901394FEA004E1D
:1024C800D1E7013FE5E72DE9FF410D46496806469A
:1024D800144601B132B92946304604B0BDE8F0418E
:1024E800FFF7EDBDFFF763FDB768D5F808806A68A8
:1024F800234641463846FFF7AFFC706029783378A9
:1025080061F300033370DB0702460AD500236968CC
:10251800ADF80E302009994201D0834204D181429E
:102528000AD804B0BDE8F08138F813509DB10123F2
:102538008142ADF80E3012D904F00F04012338F8A7
:10254800101003FA04F4013C214206D1BDF80E3004
:10255800002BE6D003E00133DDE7ADF80E300123B0
:1025680012B93B807360DCE7009339460DF10E0326
:102578003846FFF796FC7060D3E773B514460D46EE
:10258800D2E901320646D1E90110FFF744FD0028DF
:10259800A2BF23462C461D4623782A7861685340FB
:1025A800DB071AD401313046FFF701FD6B68009351
:1025B800D4E90121AB68B068FFF773FC7060237839
:1025C8003278C3F3000300280CBF002303F0010393
:1025D80063F30002327002B070BD3046FFF7E7FCCB
:1025E8006B680093D4E90121AB68B068FFF784FCFD
:1025F800E4E7F7B514460F46D2E901320546D1E9BA
:102608000110FFF708FD0028A2BF23463C461F46DD
:1026180023783A78616883EA0203ACBF0026012672
:10262800DB0719D501312846FFF7C1FC7B68009309
:10263800D4E90121BB68A868FFF733FC686028B1BA
:10264800237803F001000EB180F001002B7860F3CD
:1026580000032B7003B0F0BD2846FFF7A8FC7B6889
:102668000093D4E90121BB68A868FFF745FCE5E7BA
:102678002DE9F04F15464A686B689A4224BF2B46ED
:102688000D460C4628BF1C462B786968DB0785B0C9
:10269800064622D4237813F001071ED1FFF787FCE2
:1026A800D4E9011CB068AD683B4699420CD100EBF7
:1026B8004101FFF7C5FB00237060327863F3000225
:1026C800327005B0BDE8F08F35F813203CF81340A0
:1026D800224020F813200133E7E701313046FFF7A5
:1026E80066FC2F782378D5F804C0B068A26887EA1A
:1026F8000301C94301F0010E41F3000189B207F05B
:10270800010847F300070291B9B20191A968A1F144
:10271800020B616803F0010943F300039BB2A1EBCC
:102728000C0100936746824603918FB900EB4C0178
:10273800BEF1000F03D0012320F81C300231FFF74F
:102748007FFB706022782B78C2F300021340B4E755
:102758003BF8021F019B5940039B013F8844D9194C
:10276800B9429BBF32F8021B009B0099594089442B
:10277800029B08EA090159401EFA81F12AF8021B56
:102788004FEA19494FEA18484FEA114ECDE72DE9AB
:10279800F84F14464A6863689A4224BF23460C4699
:1027A8000D4628BF1D4623786168DB07064632D4EC
:1027B8002A7812F001072ED1FFF7F9FBD5E9013E7F
:1027C800A1686468D6F808C0E41A3A46934213D15F
:1027D80001EB430100220CEB4303944215D103EBB8
:1027E8004403A3EB0C03581000223378706062F3A3
:1027F80000033370BDE8F88F31F812003EF812502C
:1028080028432CF812000132E0E731F8120023F8CF
:1028180012000132E1E701313046FFF7C8FB2278A8
:102828002B786168B068A468D5E901E702F001086F
:1028380003F0010942F3000243F3000392B29BB292
:10284800A4F1020C0D4683464FF0010AAEEB010ECF
:102858002DB900EB4101FFF7F3FA0122C5E73CF877
:10286800024F013D5440A0440EEB0504AC4296BF14
:1028780037F8024B1C465C40A14448EA0904E4438B
:102888001AFA84F42BF8024B4FEA19494FEA184810
:102898004FEA144ADCE7F0B514464A6863689A427E
:1028A80028BF23460D4624BF0C461D4627782B78A3
:1028B80061685F4017F0010785B006463BD1FFF716
:1028C80076FB237813F0010329D1D5E9012C61683F
:1028D800B068A768891A9A4212D107EB4207002309
:1028E80000EB4202994214D102EB4101FFF7A8FA2A
:1028F80000273378706067F30003337005B0F0BDCC
:1029080037F813403CF813506C4020F8134001335B
:10291800E1E737F8134022F813400133E2E7CDE945
:10292800027701976B680093D4E90121AB68B0681E
:10293800FFF709FBDCE70131FFF739FB2B78DB43B5
:1029480003F0010303932378DB4303F0010301271A
:10295800029301976B680093D4E90121AB68B068D2
:10296800FFF7F1FAC5E72DE9F04F4B6885B004464B
:102978000E4615460BB1536843B923786FF300032D
:1029880023700023636005B0BDE8F08F81422ED12B
:10299800FFF722FBA5420646074600D105466B68AD
:1029A800716820461944FFF702FB2268A068C2F349
:1029B8009D025200002125F075FAB368D4F808E0AA
:1029C800D6F804900193AB68029300226B680393D6
:1029D8000EEB4908F4461146039B934231D0DDF8CB
:1029E80004B0CDF80090ACF10200002318E0824258
:1029F80004D1FFF7F1FA05460746D0E70027CEE7EE
:102A080030F802AF53441946029B3BF802AB33F847
:102A1800123003FB0A130099038001391B0C009143
:102A280000990029ECD14146881C13B1A8F8003060
:102A38000146A1EB0E0149100CF1020C013280464F
:102A4800CAE761602A78337853402278384663F3BE
:102A58000002227005B0BDE8F04FFFF7F6BA4B68E8
:102A680070B50546144613B11378DA0706D52B78E6
:102A78006FF300032B7000236B6070BD636823B98C
:102A8800BDE870400121FFF7ECBA0846FFF7A4FA49
:102A980006462046FFF7A0FA012104462846FFF71C
:102AA800E0FA636883B1A3681B88DB0704D5324664
:102AB80029462846FFF757FFD4E901210123084694
:102AC800FFF7CAF9606038B93046FFF7BEFA20460A
:102AD800BDE87040FFF7B9BA324631463046FFF7D5
:102AE80042FFDEE72DE9F04F0C4651688FB0934660
:102AF800013105460393FFF75AFADBF80420A8686A
:102B080001325200002125F0CDF92B7800266FF311
:102B180000032B706E60DBF8041020460131FFF7CC
:102B280046FA59462046FFF7CAFA039BD4F808909C
:102B3800D4F80480D3E901370293AB6804933A468A
:102B4800029B41464846FFF766FA002835D1049AA9
:102B58006060012313806B6023786168C3F300020F
:102B680000290CBF002202F0010262F30003039A5D
:102B780023709BF8003012785340DB0740F1FC804B
:102B88006B682A78003B18BF012363F300022A70A0
:102B9800002900F0F1800BA84FF0FF31FFF7ADFAE4
:102BA8000BAA29462846FFF7E8FC039A2146204647
:102BB8000FB0BDE8F04FFFF7E0BC01DA6E60CBE77D
:102BC800029B03F10042013A4FEA420A37F8121019
:102BD80033460E0403F101004ED59BB209EB4801C0
:102BE8004FF0000C08F10100C3F1100629F818C0D5
:102BF800019160600231CE4605968E4540D337F884
:102C080012209A400592029A012A09D907EB0A0272
:102C1800C3F1100132F8022CCA40059911430591FD
:102C2800029A801A6860049A00F10040013802EBA9
:102C3800400207920AF102020992BA1E0892D4F8D9
:102C480004A0029A524529D30AF1004A0AF1FF3A30
:102C580009EB4A0A0022C3F11000D14573D96FF07D
:102C680000416B682BB104985A1830F81220002ADA
:102C780073D06FF0004175E0490089B20346A8E7B8
:102C8800BEF8008008FA03F64CEA060C059E2EF8FA
:102C980002CB28FA06F81FFA88FCAEE7019A0198D9
:102CA800118832F8022C42EA01420599B2FBF1F28E
:102CB8000999411A06910899069F00200E468646F2
:102CC8000199B9420DD809880844A8BB079921F889
:102CD8000229019A0791023A01920AF1FF326260D1
:102CE800ADE736F8021FB7F80080994041EA1E4E5A
:102CF8001FFA8EF1514318FA80F81FFA81FC090C6B
:102D0800A8EB0C0CC1EB204127F802CB01EB2C40BF
:102D1800D6E738F8021F994041EA1E4EBCF8001069
:102D2800394411FA8EF12CF8021B0F0C01996145F8
:102D3800EFD83844013AC8E70027DDF82080DDF8ED
:102D480018C0BE46F2E7BAF8001041FA03F632435B
:102D580081402AF802298AB27FE7013B6B6080E74D
:102D6800013B63606368002B3FF4F6AE5A1839F8EC
:102D78001220002AF4D0EFE60FB0BDE8F08FF0B5CE
:102D88001F464B6885B004460D4616464BB113786E
:102D9800DA0706D47B68012B0BD1BB681B88012B93
:102DA80007D123786FF3000323700023636005B015
:102DB800F0BD01212046FFF754F97368002BF6D0C7
:102DC8002846FFF709F905463046FFF705F9064694
:102DD80001A8FFF767F97368B3B1B3681B88DB070D
:102DE8000AD52A4621462046FFF7BDFD3B46224626
:102DF800214601A8FFF776FED6E9012101230846FE
:102E0800FFF72AF8706058B901A8FFF750F928466B
:102E1800FFF71BF9304605B0BDE8F040FFF715B9DC
:102E28002A4629462846FFF79EFD3B462A4629465C
:102E380001A8FFF757FECEE710B5D0E901210346F8
:102E480001EB42020020914204D31B78DB0748BF04
:102E5800404210BD32F8024D44EA0040F3E730B575
:102E6800D0E90124002304EB4202944206D30278FD
:102E7800D20748BF5B420B60012030BDB3F5004F5D
:102E880004D232F8025D45EA0343EEE70020F4E796
:102E98002DE9F04F0446C9B19818D4E901E74FF07D
:102EA800010B023F002603EB020ABEF1000F0FD10F
:102EB80000293AD0C21A1846237813F0010FBDE84A
:102EC800F04F14BFFF21002124F0ECBF1846E4E7BF
:102ED80037F8025F804645EA06464FF0020994F843
:102EE80000C0B5B21CF0010F1FBF6FEA050C5BFAFA
:102EF8008CFC1FFA8CF5CCF3072BEDB281B10138AD
:102F080008F8015C834213D0B9F1010F4FEA162685
:102F180002D10EF1FF3EC8E74FF001098046DEE717
:102F2800013088F800505045EDE713441A1AC3E7FA
:102F3800BDE8F08FD0E901329FED0C0A9FED0C7AC5
:102F480002EB43039A4205D30378DB0748BFB1EE8F
:102F5800400A704733F8021D07EE901AF8EEE77A38
:102F6800E0EE077AB0EE670AECE700BF0000000069
:102F7800000080472DE9F84F44689DF828B00B9F62
:102F880081468A4615461E469CB982B1551E3A4668
:102F980015F8011F134639B930221A70002203F8B8
:102FA800012FD81BBDE8F88F02F8011BF0E73B465C
:102FB800F2E764002046FDF71FFAD9F808108046AA
:102FC800224624F02BFF3B463A4608EB0401A6F1C3
:102FD8003A008C1E0026A045A44632D93036392E38
:102FE800144688BF361804F8016B4646B142B44609
:102FF80032D8BBF1000F05D0E31A032B02D1941C81
:1030080082F801B04046FDF71FFA5DB1284624F06A
:1030180083FF2A18611E1346AB422FD8954288BFFA
:103028000020044499F80030DB0744BF2D2304F83E
:10303800013B3B46621E9A4225D800232370E01BC1
:10304800B0E7BCF800C04CEA0646B6FBFAFC24F828
:1030580002C90AFB1C66BEE7BCF800C00236BCF118
:10306800000FC3D0BBF1000F06D0E61A032E02BF33
:10307800941C82F801B023462246AAE713F8016D92
:1030880001F8016FC8E71978107803F8010B02F806
:103098000119D0E7D0E9023293423DBF5A1C826041
:1030A80018784FF0FF307047036810B5044613B125
:1030B8004068FDF7C9F92046BDE81040FDF7C4B9DE
:1030C800F8B5054610200C461F461646FDF794F93C
:1030D800054B8460C0E900743444C4606B60034BE2
:1030E8002860AB60F8BD00BF9D300008B130000813
:1030F80002690A2A10B5044635D1836A013383620E
:103108000123A269E36263696261226F2361002A75
:1031180031D0616E8A423FBF501CA16E20678A5C25
:1031280028BF0022A2613BB9E2692261226A62617A
:10313800626AA26163662367D4E905230D2A07D171
:103148000A229342626103D1D4E901039847A0613E
:10315800A369013306D163695A1C03D00A2B1CBF2B
:103168000A23A36110BDC36A092A04BF073323F0E9
:1031780007030133C5E7D4E901039847A061DBE7FA
:103188000369272B08D0222B06D0722B06D143695E
:10319800272B01D0222B18D101207047752B05D081
:1031A800622B0BD0662B09D0002070474069272876
:1031B800F2D0A0F122035842584170474369272BA7
:1031C800EAD0222BE8D0722B04E0662B01D180696B
:1031D800EDE7622BE8D1FAE770B504460D46002604
:1031E8002069431C01D1304670BD0A2808D115B1A9
:1031F800636B002BF7D02046FFF77AFF0126EFE735
:10320800FEF790FD18B12046FFF772FFE8E7236943
:10321800232B08D12046FFF76BFF23695A1CDFD008
:103228000A2BF7D1DCE75C2BDDD163690A2BDAD1F5
:103238002046FFF75DFFE6E7436E2DE9F74F0446AA
:10324800A3B1036F93B929216030FEF703F923690D
:10325800E36163692362A3696362A36E1A782261DA
:103268005A7862619B78A361032323670021616513
:103278002046FFF7B1FFA36A6364236BE56AA56480
:10328800002B04DA082284F84C20013304E007D02C
:10329800072284F84C20013B236303B0BDE8F08F7C
:1032A80090B3636B83BB062384F84C30D4E90F30AA
:1032B8006FF000429918013D30F811108D42ECD0A2
:1032C80017D9A16B8B4207D308314900FDF7AFF836
:1032D800A36B20640833A363D4E90F32591CE1635C
:1032E80022F81350236BD0E7013BE363236B013BC8
:1032F8002363E36B991830F811108D42F4D3CCD0C6
:10330800022384F84C30C8E72269551C01D10023F8
:10331800F7E72046FFF734FF0646002800F0EE8165
:10332800002384F84C3004F150072369752B72D0C0
:10333800622B15D1636994F84C50722B4FF00D0332
:103348006CD1002D40F0148384F84C302046FFF7F0
:10335800CFFEB0464FF000092046FFF7C9FE1EE039
:10336800722B0AD16369622B03D194F84C500D2358
:10337800E7E7662B41D10523C3E7662B31D16369A3
:10338800722BF8D094F84C500C23002D40F0DA82C0
:1033980084F84C302046FFF7ABFEB146A8462369B7
:1033A8002046222B0CBF4FF0220B4FF0270BFFF7C4
:1033B8009FFE23695B453AD163699B4537D1204617
:1033C800FFF796FE2046FFF793FE4FF0030AB9F188
:1033D800000F04D0A74904F16000FEF77EF800252D
:1033E80033E094F84C30002B40F0CC820C2384F866
:1033F8004C304FF00009C846D1E794F84C500C23E4
:10340800002D40F0AF8284F84C302046FFF770FE64
:10341800B046A946C3E794F84C500C23002D40F061
:10342800AB8284F84C302046FFF762FEE1E74FF0AC
:10343800010ACCE79B4540F0888038465946FEF79C
:1034480010F820460135FFF753FE2369581C00F099
:103458005281BAF1010F00F04B815545EAD3294654
:103468003846FEF753F801212046FFF7B5FE2046FF
:10347800FFF786FE00287FF458AF0EE7204600913C
:10348800FFF736FE23697B2B1DD138460099FDF7DF
:10349800E1FF2046FFF72CFE7B213846FDF7DAFFD7
:1034A80021697B29EAD05C2940F01C8120460091E3
:1034B800FFF71EFE25690099B8F1000F4CD0384679
:1034C800FDF7CFFFB7E028212846FDF7C3FF636E5D
:1034D80000222169481C04D022BB3A2901D07D2949
:1034E80017D1D4E91921881810F8010C3D2807D103
:1034F800D21A19443846FDF707FF636E013B63662D
:1035080028462921FDF7A6FF2C212846FDF7A2FF12
:10351800C2E721F020005B2808D05D2908BF02F12E
:10352800FF3204E021F020005B280CD10132C9B23F
:103538002846CDE90032FDF78DFF2046FFF7D8FD7C
:10354800DDE90032C5E75D28E8E72169B9F1000F38
:10355800A9D004F16005A4E7782D00F29B805B2DCB
:1035680007D8222D7ED01AD80A2D66D004F1500033
:1035780085E0A5F15C031C2B00F28F80DFE803F0E7
:10358800728D8D8D8D262A8D8D8D3A8D8D8D8D8D9B
:103598008D8D328D8D8D198D2E40368D7500552D62
:1035A80057D06BD8272D5DD04E2D76D132480AF0F2
:1035B8001FFD94F84C300D250C2B66D00D2B40F0D8
:1035C8008880E9B23846FDF745FF36E094F84C307C
:1035D8000725F1E794F84C300825EDE794F84C30CE
:1035E8000925E9E794F84C300A25E5E794F84C30CA
:1035F8000B25E1E794F84C300C2B6ED00C25DDE759
:1036080094F84C300D2B28D0032300252046019335
:10361800FFF76EFD226900921046FEF7A1FB002815
:1036280000F0B481009A1046FEF7DAFB019B2D01E9
:10363800013B0544EAD2691C48D12046FFF758FDF2
:1036480023695A1C4FF000054ED1032384F84C30EF
:1036580005E794F84C300D2B09D15C2104F150009A
:10366800FDF7FFFE94F84C30A6E70123CDE70723CA
:10367800CBE700BF0F1E0408181E04083846FDF7E4
:10368800F0FE94F84C300C2B29D129463846FDF72A
:10369800E8FED2E704F1500012E7A5F13003072B4A
:1036A80012D81D46032308E020460093FFF720FDAB
:1036B8002269009B303A02EBC5056269303A072A55
:1036C800B9D8013BF0D1B6E75C214FE7B5F5881FC3
:1036D800D7D3012384F84C30AFE71D46D5E7FF2D3B
:1036E800F7D86BE7C9B26DE7BAF1010F7FF4A2AE64
:1036F8000A2B7FF4B2AE5545A7D3B0E61046FEF7C5
:103708001BFB054698BB20695F2830D07F282ED840
:10371800FEF71CFB002869D021692E2971D10B23E3
:1037280084F84C3004F150063046FDF79AFE2046E6
:10373800FFF7DEFC0B272069431C3FF4AEAD002DDC
:103748007AD120F02003452B76D16521304684F8C4
:103758004C70FDF786FE2046FFF7CAFC21692B292D
:1037680062D02D2960D00846421CEAD195E509238C
:1037780084F84C3004F15005217C2846FDF76AFE98
:103788002046FFF7B5FC2069411C1BD12846FDF7F0
:1037980052FE804F0646002557F8041B304624F099
:1037A800C9FB00281CD10F35EDB2122D84F84C50FE
:1037B8007FF473AD784BD3F80032002B14BF0F237E
:1037C80011239EE5FEF7B8FA0028D5D120695F28B5
:1037D800D2D07F28D0D8FEF7B9FA0028CCD1D5E7C7
:1037E800FFF65BAD0135242DD6D156E523692E2B86
:1037F80004D16069FEF7AAFA00288DD1674D002729
:1038080040E00A23302984F84C308BD1636943F0B7
:103818002003623B162B9DBF614D1D4105F001053C
:10382800012585F001057DE73046FDF71AFE2046A3
:10383800FFF75EFC206997E7FEF77EFA28B1216959
:103848002E290DD184F84C700EE02069FEF77EFA1F
:103858000028F4D123692E2BF1D05F2B07D01CE56B
:1038680021F020034A2BEDD03046FDF7FAFD204623
:10387800FFF73EFC5FE7652E01D0632E00D10135CE
:10388800013701352E7816B12369B342F3D12046AA
:10389800FFF72EFC0EB9012333E5212E07D123694A
:1038A8003D2BF8D12046FFF723FC3A2329E52E2E9D
:1038B8000FD123692E2B02D163692E2B01D05D23F2
:1038C8001FE52046FFF714FC2046FFF711FC0E23E6
:1038D80017E503357E1C15F8023C632B23D0652BB6
:1038E80008D115F8013C22699A4225D12046FFF7F4
:1038F800FFFB37462B4BDB5D84F84C30552B0ED045
:10390800563BDBB2042B3FF6C8AC012202FA03F3A4
:1039180013F0150F13D113F00A0F3FF4BEAC636B0D
:1039280001336363B9E415F8012C23699A42E1D1A4
:103938002046FFF7DDFB374602350136CBE7636BE0
:10394800013BEEE7B1464FF0010A4FF000089D42F7
:103958007FF4A3AC2046FFF7CBFBBAF1020F3FF48C
:10396800FBAC1CE5B0464FF0010A4FF00009EEE74A
:10397800B0464FF0020AF8E74FF000094FF0010A8D
:10398800C846E4E70C2B3FF434AD86E4012384F801
:103998004C309EE6A81E04084C000020CA1D0408EE
:1039A800FEDFBFFF381F04087FB5064601AD74204F
:1039B80085E80E00FCF720FD0446034695E807005D
:1039C80043F8046B83E8070001236FF00102C4E9A0
:1039D8000A3200250A22C4E90E23C4E90C55142032
:1039E800FCF70AFD2021206404F15000FDF7B5FC26
:1039F800294604F16000FDF7B0FC236C20461D80C9
:103A0800C4E905552561FFF773FB2046FFF770FBF6
:103A18002046FFF76DFB2046FFF70EFCA36C012B39
:103A280018BF0723204618BF84F84C3004B070BD77
:103A380030B585B001AC05462046FFF741FB94E858
:103A48000E002846FFF7B0FF05B030BD30B585B091
:103A580001AC0146054620461EF0C6FD2846FDF786
:103A680063FB94E80E00FFF79FFF05B030BD10B56B
:103A7800044690B1C3684068984704F15000FDF7C8
:103A880095FC04F16000FDF791FC206CFCF7DCFC70
:103A98002046BDE81040FCF7D7BC10BDD0E9043281
:103AA800013B036152F823007047036942695B1ABE
:103AB800013B52F823007047F8B5446A06460D46A4
:103AC800B4B1D4E900030B44834222D9083100225F
:103AD80001442046FCF7B6FC0246B8B961682046A6
:103AE8000831FCF7AFFC63682360336A63603462B3
:103AF800802D2F4638BF802707F10800FCF77CFC93
:103B08000023076043600446706202E023682B4488
:103B1800236060680544656008342044F8BD38B502
:103B28000D460C211446FFF7C7FF4FF49D72C0E9FC
:103B38000124056038BD38B5D0E903329A420446FD
:103B48000D4608D3103399004069FCF770FCE36810
:103B580060611033E360D4E90432591C216142F8F2
:103B6800235038BDF8B504461D46D0E9000383420A
:103B78000F46164608D31030C100A068FCF757FC62
:103B88002368A06010332360D4E90103421C6260FB
:103B980053F8301067F3170143F8301003EBC002F5
:103BA800D6705560F8BD10B48469CAB20023616C40
:103BB8005DF8044BFFF7D6BF10F001021CD110F0DE
:103BC80003030CD000F00F03062B15D00A2B11D1DC
:103BD80000090E3803288CBF00200120704770B1FF
:103BE80002793A2A08D02D2A08D18068B0FA80F0E4
:103BF80040097047104670470120704718467047C3
:103C0800C20702D540F001007047830710D00309AE
:103C180000F00F00062803D1D80040F002007047DA
:103C2800A3F10F00022809D8064B53F8200070476B
:103C380030B103793A2B03D1806870470248704746
:103C480002487047D01F0408C0440408A04B040869
:103C580038B505460C46FFF7AFFF38B12846FFF7E1
:103C6800CFFF0BF097F9031B5842584138BD2DE997
:103C7800F0410F4605461446114689B9204612F010
:103C880049FC014600F10808A4B90A462846394605
:103C9800FFF745FF01462846FFF74DFF012007E0E3
:103CA80001392846FFF701FFFFF786FF0028E4D116
:103CB800BDE8F0812846FFF7F1FE0646FFF7A0FFB2
:103CC800013C48F82400002EDED0B307DCD1686A36
:103CD80000F108039E42D7D3426813449E42D3D2D0
:103CE80073681B0A0233A2EB83024260CCE7000030
:103CF800F7B5866996F84C20092A05460F461FD164
:103D0800D6E91510FDF772F9902F04460ED1C100BF
:103D1800002241F0020105F128000AF0FFFC28B159
:103D28004268D30724D542F0010002E0200140F0A8
:103D380002000146284603B0BDE8F040FFF7FBBE8D
:103D4800A2F10A03032B31D8DFE803F0020A172B8C
:103D58000022D6E91510334608F0DCFA0246E0E7FF
:103D68000096D6E915100023012208F051FB0246FF
:103D7800716C2846FFF7D3FEDBE7D6E915100A2950
:103D880006D8FDF733F930B1000140F00600D0E75E
:103D9800FDF7FEF8F7E7D6E91521064810F061FCB3
:103DA800E5E7D6E9151010F047FDE0E7120142F00B
:103DB8000A00BEE7484A040810F00102034604D08E
:103DC80040F001030B600120704790B110F0030030
:103DD80010D11A793A2A0ED19B680B6013F00100B2
:103DE800F1D19A0707D11868034BC31A58425841B2
:103DF8007047704710467047A03D04080021FFF740
:103E080027BF0121FFF724BF2DE9F04F2D2A87B0E6
:103E18000446884616461D460ED10021FFF745FE8A
:103E2800002800F06381830703D10379922B00F007
:103E38005D8107B0BDE8F08F922A30D10021FFF7ED
:103E480034FE0146002800F0FD81870707D1476846
:103E5800FBB2952B18D12046FFF720FE013DA6F1B5
:103E68002303DFB2092F00F2EB81092B00F2E8816E
:103E7800DFE813F0D600D600D600110111011101B8
:103E88006101D600E601A001962BE8D127F0FF07D3
:103E9800204647F09207FFF701FE4F60C9E7962AD0
:103EA80013D1D0E9012303EBC203013513F8153C04
:103EB8002D2B40F01B812A46FFF7D9FE002800F081
:103EC80015816368023B6360B3E7A2F11E03012B0F
:103ED80039D805F1FF3A8DB1AB46A94609F1FF394A
:103EE80049462046FFF7E1FD23696269A3EB0B030E
:103EF800074642F82300B9F1000F09D100215145C6
:103F08001CD16D1A012D94D0332E00F0B281EDE052
:103F18001E2E0BD1FFF775FF0028EFD13846FFF7AB
:103F28006DFF00B9D3460BF1FF3AD7E7FFF766FFFD
:103F38000028E3D13846FFF764FFF2E72046FFF791
:103F4800ADFD0131DBE7202A19D10021FFF7ADFDD6
:103F58000746FFF753FF78B93846FFF752FF0028A6
:103F680000F0C480FA212046FFF798FD204607B0EC
:103F7800BDE8F04FFFF7DFBD4FF48D71F3E7052A79
:103F88007FF46DAF0021FFF790FD0746002800F091
:103F9800AD80B80740F0AA80D7F804A00AF0FE0365
:103FA800562B00F0A38001212046FFF77EFD00F08C
:103FB8000F03022B40F09A805FFA8AFABAF12C0FAD
:103FC80040F09480BB6803F00F02022A40F08E8014
:103FD8001B09482B40F08A80FB68002B00F0868084
:103FE80013F0030A40F082801A79302A7ED1D3F880
:103FF80008B04FEA10195846FFF7DEFD002840F0D8
:10400800B480A3490190A3480CF058FEA169019B14
:104018003A68096805460CF02BFF2846FCF7C8F9F2
:10402800691E2046FFF741FD03A9FFF7C5FE0028DA
:104038005CD0022F9ABFA6F10D07FFB22227A5F187
:104048000209B9F1000F09DA002D40F0EE80039A59
:10405800D30740F1EF8042F0010187E74946204647
:10406800FFF723FD04A9FFF7A7FE00283FF44CAF94
:10407800222FDDF810A008D003995246384609F0DF
:10408800C7FD09F1FF390390DBE750460DF0C9FF82
:104098000028F1DA38E7691E2046FFF706FD03A974
:1040A800FFF78AFE10B3A5F10209B9F1000FCBDDC5
:1040B80009F1FF312046FFF7F8FC04A9FFF77CFE61
:1040C800A0B149462046FFF7F0FCC0F3071043288B
:1040D8000CD045280AD0DDF810A02538C7B25046C4
:1040E8000DF09FFF1A2F19D800281BDAA91C890088
:1040F8002046FFF7E1FC46EA05230746C0F80080A2
:10410800436000F10801002D40F0BB80962E03D1DA
:1041180039462046FFF70FFD394627E71E2F01D9FC
:104128000028E3D003995246384609F071FDA9F1F9
:1041380002090390B9E700212046FFF7B6FC03A95E
:10414800FFF73AFE0028D1D001212046FFF7ADFC49
:10415800C0F30710342818BF4038039914BFC0B201
:10416800022008F0B3FF03906EE75846FFF748FDBA
:104178004FEAC9010746012241F0020104F1280073
:104188000AF0CCFA47604846FCF7EFFF03785F2B4C
:10419800204608D1FFF782FC2046FFF77FFC5546F2
:1041A800D04608265BE6FFF779FC59462046FFF71C
:1041B800C2FC9BE701212046FFF777FC0021074658
:1041C8002046FFF772FC07F00F03022B8ED1002860
:1041D8008CD010F0030289D10379322B86D13909AA
:1041E800C900D0F808902C4841F002010AF096FA6C
:1041F80000283FF47BAF406804AA4FEA191108F081
:1042080089FE049B002B3FF471AFD90707D49A07A6
:104218007FF46CAF1968214A91427FF467AF059A21
:10422800002A7FF463AF03930EE72046FFF736FCBE
:10423800013D09E729462046FFF771FC014695E64E
:10424800922E11D1D4E9012303EBC20313F8053CE4
:104258002D2B14D12A4641462046FFF708FD922609
:1042680000287FF4E6AD41E7062E02D0362E7FF413
:104278004BAE2A4641462046FFF7F9FCF0E7922666
:1042880034E72046FFF70AFC013D41F825003AE7EC
:10429800641F040850370408DC1F0408A03D040804
:1042A8000346006830B550B184070AD14468E5B2C6
:1042B8008D4206D100F10803200A136030BD034681
:1042C800FBE70120F9E700002DE9F04F93B0002447
:1042D800402302904FF400700D460192CDE9053459
:1042E800FCF78AF8202307908020CDE90834FCF7F2
:1042F80083F82146CDE90A050FA8CDE90D440AF057
:10430800D7F9019B002B40D0022B0CBF3F2222463D
:104318000023696CDFF8D4B205A8FFF723FC00235B
:10432800069C002C00F07781013C0799AA4F06945F
:1043380001EBC40251F83410D6785268C1F317095A
:10434800A64911F806A0A649895D632E88BF41F4E5
:10435800807107EB41070AF0300110290AF00F08B5
:1043680015D0202942D0002B00F00E81B8F1020FA1
:1043780040F0F680012A10D01AF0010F02F1FF3345
:1043880040F03981012B1FD0E8E03D22C0E702B19F
:10439800D3B107EB4207904501D80123C0E7BA46DD
:1043A80037F8023B03EA0B01B1F5805F0ED195F8AF
:1043B8004C10C3F30B03994216D105A83146FFF7F9
:1043C80097FC2846FEF738FF0023A9E7531C43450E
:1043D80004D23246494605A8FFF7C4FBBAF80010D4
:1043E80005A8FFF7E0FBEFE70132D4E77BB102F164
:1043F8000043013B37F813300BEA0303B3F5405F82
:104408001ED1002105A80392FFF795FB039A07EB3D
:104418004204904528D8019B0BB1052E4DD00024AD
:1044280007EB4803A0469F426AD1B8F1010F40F05C
:104438008C801AF0400F00F08880002631467EE01C
:10444800012AAAD995F84C30072B40F0128165490A
:1044580065480CF033FC6A6C2968044600230CF0AC
:1044680007FD2046FBF7A4FF039434F8021B01EA7A
:104478000B00B0F5805F17D195F84C00C9B288429F
:104488000ED1092805D1314605A80392FFF730FC63
:10449800039A03922846FEF7CFFE039A0132B8E743
:1044A800002A3FF47AAFCDE7531C4946324605A8A7
:1044B800FFF758FB039B198892E7002105A8FFF72F
:1044C800F4FA0028ABD1012105A8FFF7EEFA83071B
:1044D80010D000F00F000228A1D005A8FFF7DEFADF
:1044E80005A8FFF7DBFA00230822494605A8FFF7CD
:1044F8008BFC69E7002892D003793A2BEDD08EE740
:1045080033F8022D02EA0B01B1F5805F06D1D2B271
:10451800092A88D1013408F1010884E7214605A851
:104528000393FFF7C2FA039B08B108F101080134AD
:1045380079E7FFF7B3FA0136002818BF0146A6420B
:1045480005A8F6D1FFF7F7FA3EE71AF0800F04D076
:10455800002105A8FFF7EFFA013423463246C4E7E5
:10456800012A3FF41AAF12F0010002F1FF330AF0FA
:1045780001013DD0B8F1030F7FF464AF002948D1A1
:10458800012BEBD10123E9E708EA020303F0010359
:1045980037F8134004EA0B01B1F5805F13D195F8A1
:1045A8004C10C4F30B04A14202F1010409D11BB958
:1045B800314605A8FFF79CFB2846FEF73DFE22463C
:1045C800E2E72246D2E6531C4946324605A8FFF7E1
:1045D800C9FA214604E700BFC8200408502404088B
:1045E80018200408701F04082C37040800F0FFFF87
:1045F80000293FF4C7AE002178880BEA0000B0F527
:10460800805F08BF5308012BA8D100293FF4DCAE16
:10461800B8E70121F0E70FA80AF05EF80E9850B14C
:10462800416822460831FBF70DFF0E9B5A681A6055
:104638000D9A5A600D9395F84C30002B7FF402AF19
:10464800099B002B3FF4FEAE0A9B07981B680C934E
:10465800FBF7FAFE0A98FBF7F7FE2846FFF707FA7A
:10466800DDE90C01029B83E80300184613B0BDE89E
:10467800F08F022B01D10649EAE6042B02D1054945
:104688000548E6E6052B0CBF04490549F8E700BFD5
:10469800821F0408A41F040850370408B71F040821
:1046A800CC1F040810B5406800B910BD4468FBF77A
:1046B800CBFE2046F8E70000F8B5054630200E4648
:1046C8001746FBF7B2FE072D04460570C66001D0F9
:1046D800012D0FD1B368C3F30F13A38208F046F876
:1046E800042320612783E3842020FBF785FEE06212
:1046F8002046F8BD014B5B5DEFE700BF00250408CD
:1047080010B50446C06AFBF79FFE2046BDE810407E
:10471800FBF79ABE30B5058D04460022954201D8B4
:10472800002030BDE36A03EBC20043688B42F8D037
:104738000132F3E770B504460D461646FFF7EAFF67
:10474800C0B9E38C228D9A4208D30633D900E06AB7
:10475800FBF76DFEE38CE0620633E384238DE26AA7
:10476800591C02EBC300218502F833600023437013
:104778004380456070BD034618465B68002BFBD13B
:10478800FFF7C8BFF8B544680E462CB9F8BD042B2E
:10479800FCD105230370F9E7254628466D68002DEE
:1047A800F4D077683946FFF7B5FF0028F5D00378CD
:1047B800043B022BEAD806253570002239462046EC
:1047C800FFF7B8FF0378002BE1D105706468F4E7C0
:1047D800036A1B8B012B1EBFC3685B18C36070473D
:1047E800836A10B504469B6F406A9847238B226AF8
:1047F8000133918C9BB29942238338BF938410BDB7
:10480800038B10B5013B0383836A0446D3F88030D9
:10481800406A984720460121BDE81040FFF7D8BFFD
:104828002DE9F04F85B004460D46039298461BB11A
:10483800CB8A43F00803CB82039BEB83236ADA8A93
:1048480042F03002DA821B78002B46D1A36A039A21
:10485800D3F8B060606A43462946B44605B0BDE85F
:10486800F04F6047DB6A03EBC60B13F83630053BA5
:10487800012B1DD84FF0000917E0EB6A03EBC902C2
:1048880013F83930062B0ED1DBF80410536899421F
:1048980009D1A36ABBF802201B69606A1F4600237E
:1048A800B8470AF1010A09F101092B8D4B45E4DCEF
:1048B8000136236A1A8DB242D4DCD4E90903BAF16D
:1048C800000FC3D0CDF80080D3F8B440039B524604
:1048D8002946A04705B0BDE8F08F0026B246E8E7B4
:1048E800836A10B50446D3F88430406A002198479B
:1048F800A36A606A1B6B10219847A36A606AD3F8A1
:10490800C8300121984720460321BDE81040FFF731
:104918005FBF38B5836A04465B6C406A00229847DB
:10492800A36A606AD3F8BC5000231A461946A84700
:104938002046BDE83840FFF7D3BF836A89681B6DFE
:10494800406A002209091847836A8968DB6B406A54
:10495800184710B50446084611461A46FFF7ACFE3C
:10496800236A436000238360E3690BB9E06110BDEB
:104978001A469B68002BFBD19060F8E72DE9F04FB1
:1049880087B0054600AF002946D08B074FD10B7979
:10499800682B0C4605D001F00F03022B4CD10909F6
:1049A8003BE0CB681B0913608C68ACB304F00F03C1
:1049B800022B46D001232646BB6056F8043F4FEA37
:1049C800132909F1FF3B06EB8908B246D0453AD1D5
:1049D8000BF1070323F00703ADEB030DC7F80CD069
:1049E800E846002356F8040F3B6007F1140100095C
:1049F800FCF7C7FB7A697A600146404623F00EFA55
:104A08003B687A6801339945424423D090464FF079
:104A18002E0208F8012BE5E701211160AB6A686AEC
:104A2800DB6A002298471C37BD46BDE8F08F01F0CD
:104A38000F03022BB3D00C468B681B0913600023AD
:104A4800B9E72109EAE75AF8040F0009FCF782FBE5
:104A58008344BBE75946F868FCF7C8FAAB6A0146D5
:104A6800DB6A686A00229847BB68002BDBD00834F1
:104A78005445D8D054F8041FAB6A686A1B6D0022ED
:104A880009099847F4E731B1826801F00303134339
:104A980004BF0B68836070472DE9F04107461E4646
:104AA80059B111F0030510D14B68D8B290420CD11E
:104AB8004FEA13280C1D454501DBBDE8F08154F889
:104AC800041F3846B0470135F5E738463346BDE898
:104AD800F0411847F8B504460E4611461A46002319
:104AE80085780769837003610E4BFFF7D5FF63680C
:104AF800BBB9618A51B1228A42B9A36A606AD3F804
:104B08009C309847A36A606A1B6C9847238A628A1C
:104B180031462046FFF784FE003D18BF0125A570E9
:104B28002761F8BD9954000870B54378012B0546F4
:104B38000C4606D1036A0A461B8B0221FFF709FFC0
:104B48002061A268216928464C23BDE87040FFF720
:104B5800C1BF70B513464278012A05460C4604D1F8
:104B68000A460721FFF7F5FEA061A669E268284614
:104B780046233146FFF7AEFFB08A70BD024B896805
:104B88009D22FFF789BF00BF99590008024B896829
:104B98006B22FFF781BF00BF3974000838B543683E
:104BA8000D46044611464BB905480CF087F82946CE
:104BB80060602046BDE83840FFF765BF38BD00BFDC
:104BC80050370408014AFFF7E9BF00BF072504086A
:104BD8000B79092B70B50CBF858AC58A4FF6FF7310
:104BE8009D42044602D1064AFFF7D8FF218B628B0B
:104BF800A36A606A5B6F8A1A2946BDE87040184745
:104C08001425040838B5054679B101F00F03022BC5
:104C18000DD10C09204609F0BBFB002806DA06492D
:104C2800064822460CF0E4F86860002038BD044AC3
:104C3800FFF7B4FFF9E700BF2D250408E4360408A0
:104C48003225040870B51446054612780E4683B11D
:104C580032B1032A04D0104ABDE87040FFF79EBF66
:104C6800032626706168286AFFF785FD00B1067083
:104C780070BD62B901232370006A2146FFF782FDE7
:104C88002378012BF4D1054A31462846E4E7062A61
:104C9800EED0034AE0E700BF422504084F25040888
:104CA8005C2504082DE9F3414378012B04460D46A1
:104CB8001AD10B79102B0CBF4FF001084FF00008E8
:104CC80008D0036A1B782BB9114A02B0BDE8F0413D
:104CD800FFF764BF01AA6D2105F10800FFF7E0FAAC
:104CE80000260746B74202D102B0BDE8F081019B19
:104CF800206A53F8261000220909FFF71BFD4346D6
:104D0800024629462046FFF79DFF0136EAE700BF25
:104D1800632504082DE9F8430446006A1646C28A4A
:104D28000D46910706D5344A29462046BDE8F84382
:104D3800FFF734BF05F00F01022917D1A3788BB113
:104D4800838B01338383290900274FF00109002948
:104D580050D00022FFF7EEFC03788046002B34D0B9
:104D6800264AE1E7438B01334383ECE72979B142D3
:104D78002F460BD1A278A96822B1828B0132828397
:104D88000909E2E7428B01324283F9E7994214D1DB
:104D9800A778002FC7D10123A370AB6853B303F0E2
:104DA8000F01022918BF1F4642F0040218BFBB6852
:104DB800C28219094FF00309C9E7AB6842F0020241
:104DC8001909C2824FF00509C1E70423037080F86E
:104DD8000190236A1B8B032B0CD1482E0AD14FB1AB
:104DE800F9682046FFF70EFF98F8013043EA0013F0
:104DF80088F80130BDE8F883CC1F04087925040839
:104E080049234822FFF786BF4F234E22FFF782BF70
:104E180010B4026A0446407801280B4604D15DF8B4
:104E2800044B104602F073BDA16A606A5DF8044B3A
:104E3800203102F07BBD10B404460B466278006A4C
:104E4800012A03D15DF8044BFFF774BCA16A02463E
:104E58001031606A5DF8044B02F068BD70B5054614
:104E68000C4600292ED0CA0706D5836A5B6B491009
:104E7800686ABDE8704018478B0717D004F00F0424
:104E8800022C4FEA11110AD0062C0CD0062919D091
:104E9800836A406A1B6BBDE87040C9B21847BDE819
:104EA8007040FFF7C8BF836A9B6BE1E7836A0968B4
:104EB800DB68406A98472279034B214653F8223031
:104EC8002846D6E770BD00BF182704082DE9F74F1C
:104ED80004460D4616461F462846FEF78FFF20B1AA
:104EE800CEB9A36A39469B6E4CE02846FEF789FF87
:104EF80008B186B1F5E7002D55D0AB0753D16B68E3
:104F08004FEA132BDBB21E2B1BD1F6B1043505EB90
:104F18008B0B5D450DD103B0BDE8F08F5AF8041F27
:104F2800019243462046FFF7D1FF09F10109019A92
:104F380019E055F8041F3B4632462046FFF7C6FFE6
:104F4800E7E71F2B23D1002EE0D0D4F80C8008F11E
:104F58000103E3600BF1FF3305F1040A4FF0000988
:104F6800009386F00102009B4B45D7DC0BF1010151
:104F78003B4655F8211032462046FFF7A7FFA36AA3
:104F88009B6A4146606A03B0BDE8F04F1847202B82
:104F980003D1AD6886F001069EE72D2B03D1AB68DF
:104FA800002BA6D19CE729462046FFF757FFA36AA6
:104FB800606ADB6E3A46314603B0BDE8F04F1847E9
:104FC80038B5026A1278072A04460B4606D0022A28
:104FD80004D0BDE83840144AFFF7E0BD9D6885B9A4
:104FE800A36A606A1B6B10219847A36A606AD3F8AA
:104FF800C8300021984720460121BDE83840FFF716
:10500800E7BBAB070BD12B79AF2B08D12046A9689A
:10501800FFF724FF2046BDE83840FFF761BC29466A
:105028002046FFF71BFFE0E78325040870B54378A7
:10503800CE68012B0446154606D1036A0A461B8B27
:105048002946FFF786FC7061002371691A462046DD
:10505800FFF7E6FBF1682046FFF700FF062D05D1B4
:10506800A36A606AD3F8843000219847A36A606A0B
:10507800D3F8B8500023AC461A46BDE87040012169
:10508800604738B50C460546C968FFF7E7FEA168D2
:105098002846BDE83840FFF7E1BE0B79342B70B5E0
:1050A80004460D4610D18968FFF7D8FEED68AD6853
:1050B80085B9A36A606A1B6B10219847A36A04220A
:1050C800D3F89C3002211AE0836A406A1B6B1021D6
:1050D8009847ECE7AB071FD12B799A2B13D1A36A1A
:1050E800606A1B6B10219847A9680029E6D0204602
:1050F800FFF7B4FEA36AD3F89C3004220321606A48
:10510800BDE8704018479B2B06D1A9682046FFF7D9
:10511800A5FEEB689968E8E729462046FFF79EFE5A
:10512800CCE710B504468968FFF798FEA36A606A61
:10513800DB6CBDE810400021184700002DE9F34161
:105148008D68044617465DB9002A72D0836AD3F881
:105158009C3002222946606A02B0BDE8F041184737
:1051680015F0030640F081802B79372B13D132B12B
:10517800836A406AD3F89C3002220121984720466E
:105188002946FFF76BFEA36A606AD3F8A03002B025
:10519800BDE8F04118479F2B67D1EB681A79A12A1F
:1051A80051D1A22101AA03F10800FFF779F8A968F3
:1051B800804609B38B071FD10B79372B1CD137B128
:1051C800A36A411CD3F89C30606A02229847A968F8
:1051D8002046FFF743FEA36A606AD3F8A0309847D9
:1051E800012746450DD127BBA36A606AD3F89C30D6
:1051F8000322711C98471CE02046FFF72FFE00276A
:10520800EFE7019B53F8261051B1880708D10B79B5
:10521800372B05D12046FFF721FE6FB9184A04E065
:105228002046FFF71BFE67B1164A29462046FFF7BE
:10523800B5FC02B0BDE8F081A36A606AD3F8A0307B
:1052480098470136CDE7AB685BB19A0709D11B795E
:10525800372B06D10422294602B0BDE8F041FFF7FA
:10526800E5BE052229462046F6E729462046FFF7EF
:10527800F5FDA36A0322D3F89C3001216BE700BF38
:105288009F2504088E2504080122FFF757BF70B533
:105298000D46C9680446FFF7E1FDA968A36A606A7C
:1052A800D3F89430C1F30711342918BF4039BDE849
:1052B800704014BFC9B202211847F8B54F680C46B0
:1052C80089680546FFF7CAFD3F0A0C3400260236F6
:1052D800B74204F1080400DCF8BD54F8041C284661
:1052E800FFF7BCFD54F8081CAB6A686AD3F898301D
:1052F80009092539C9B29847E9E72DE9F0410C4673
:105308004E6854F8081F0546FFF7A8FDA6F10D08DA
:105318005FFA88F8360A0127B74201DBBDE8F08159
:1053280054F8041F2846FFF799FDAB6A686AD3F85A
:105338009830414698470137EEE72DE9F0414E682D
:1053480004460D46360A8968FFF788FD032E83BF99
:10535800D4F80C8008F10103E3604FF0000801273E
:105368007B1C9E4222DC032E55D9E568606A6B1CC3
:10537800E360A36A29469B6E9847A36A606A9B6AA2
:1053880041469847A36A606A9B6801219847A36AC7
:10539800606A1B6E9847A36A606ADB6D9847A36AC8
:1053A800606A9B6A2946BDE8F0411847296920468A
:1053B8000237FFF753FDB74207DAA36A606A5B6DED
:1053C8009847A36A606A5B6E9847EB68A26A606A4E
:1053D800D2F8982003F00F010A2911D1C3F307135B
:1053E800262B1ABF353BD9B206219047B74205DABA
:1053F800A36A606A1B6F4246002198470835AFE7E9
:105408001979852901D13221EFE79B680BB907216A
:10541800EBE73321E9E7BDE8F08110B50446896878
:10542800FFF71CFDA36A606AD3F89430BDE810400A
:10543800032118472DE9F0470D46D0F80C8055F8A0
:10544800046F5FFA86F9A9F11E03D3F1000949EB4D
:10545800030908F101030446C360360A0027B7426E
:1054680006DBA36A606A9B6A4146BDE8F0471847B5
:1054780055F8041F20460137FFF7F0FCB742F0DA71
:10548800A36A606A1B6F424649469847E7E70000EF
:1054980001F00F03022B70B5044611D00B79492B8C
:1054A80006D04F2B04D04A2B01D0502B03D170BD0E
:1054B8000123A370FBE7482B0CBF0D69CD685DB9CC
:1054C800A378002BF3D1638A002BF0D020461C4A26
:1054D800BDE87040FFF762BB83788E683BB3038AF0
:1054E80001339BB2012B03820ED1418AD0E9090313
:1054F800D1B1D3F89C3000229847A36A606AD3F8E8
:105508009C3002220021984729462046FFF7A6FC36
:10551800A36A606A9B6B31099847A36A606AD3F8EB
:10552800A030BDE8704018471B6C9847E5E7438AF0
:10553800013329464382BDE87040FFF78FBC00BFA6
:10554800AA2504082DE9F041C568D1F80C800E465B
:10555800AB1C04460022D8F80810C3602B46FFF79E
:10556800B5FCB1682046FFF779FCA36A606A9B6EB8
:105578006F1C39469847A36A606A9B6A2946984710
:10558800A36A606A9B684FF0FF319847D8F80C10FF
:105598002046FFF763FCA36A606A9B6A3946BDE848
:1055A800F04118472DE9F047C668D0F814A0B0F8C4
:1055B8001A908682B31CC36006F10108038BA0F819
:1055C80016800446438388680D46FEF717FCF8B931
:1055D800E768A8687B1CE360FEF713FC20B9A36AA0
:1055E800606A9B6E41469847A36A606A9B6A39461F
:1055F8009847E9682046FFF731FCA36A606A9B6A0E
:1056080041469847A9683B4601222046FFF75EFCC1
:105618002969C4F814A02046A4F81A90FFF71EFCC4
:10562800A36A606A9B6A3146BDE8F04718472DE9CE
:10563800F347C668731CC360044688680D46FEF7C6
:10564800DDFB0246E8B9E768A9687B1CE3602046F1
:105658003B46FFF73BFC2046E968FFF7FFFBA868DD
:10566800FEF7CFFBD8B92B690BB96B6923B1A36AD5
:10567800606A9B6E31469847A36A606A9B6A39469E
:10568800984701AA712105F11000FEF709FE0027CD
:1056980081464F450BD169692046FFF7DFFBA36AB6
:1056A800606A9B6A3146984702B0BDE8F087019B63
:1056B80053F82780D8F80800FEF7A0FB0246F8B98F
:1056C800D4F80CA0D8F808100AF10103E3602046CA
:1056D8005346FFF7FBFB2046D8F80C10FFF7BEFB3C
:1056E800D8F80800FEF78DFB0028D8D1A36A606AB5
:1056F8009B6E31469847A36A606A9B6A51469847F1
:105708000137C6E7184B2DE9F041D3F8007204467B
:105718000D463FBBC6688968731CC36001223346C7
:10572800FFF7D4FBA36A606A5B691F2101229847CF
:10573800E96851B12046FFF791FBA36A606AD3F884
:10574800B8503A463B460121A847A36A606AD3F895
:10575800C43001219847A36A606A9B6A3146BDE854
:10576800F0411847BDE8F0814C00002070B58D6805
:1057780004463DB9836AD3F8C4302946606ABDE857
:1057880070401847AB070ED12B795E2B0BD1A96857
:10579800FFF764FBE9682046FFF760FBA36A022174
:1057A800D3F8C430EAE729462046FFF757FBA36A37
:1057B8000121D3F8C430E1E710B504468968FFF742
:1057C8004DFBA36A606ADB6DBDE810401847000016
:1057D8002DE9F041026A1278072A044604D0BDE890
:1057E800F0411A4AFFF7DAB98D685DB9836A406AF1
:1057F8001B6B10219847A36A606AD3F8C030BDE8D4
:10580800F041184715F003021DD12B791B2B1AD133
:10581800C668EF68731CC360B9683346FFF756FB68
:10582800A9682046FFF71AFBA36A606AD3F8C0305C
:105838009847A36A606A9B6A31469847F968204688
:10584800FFF70CFBD7E72946F9E700BFC82504088E
:105858002DE9F0410C46054654F8046F360A04EB6E
:105868008607BC4208D1AB6A686AD3F89C303146D7
:105878000022BDE8F041184754F8041F2846FFF7F6
:10588800EDFAEEE7896810B4034641B9826A406AC6
:10589800D2F89C400A4623465DF8044B18474A68EC
:1058A800120A022A0BD1CA684AB1940707D11279A1
:1058B800AC2A04D15DF8044B0622FFF7B7BB5DF8AC
:1058C800044B1846FFF7C4BF2DE9F0410E460546C4
:1058D80056F8043F0F464FEA13280024444501DBDD
:1058E800BDE8F08156F8041F2846FFF7B7FA6B6841
:1058F8003BB10234284657F82410BDE8F041FFF7C1
:10590800C2B80134EAE710B50446FFF7DDFFA36A21
:10591800606AD3F89830BDE810402221184770B566
:105928008D68044645B9836AD3F89C30012229461C
:10593800606ABDE870401847A9071ED16B68DAB2E3
:10594800922A1AD11B0A022B0CD1EB6853B19A0781
:1059580008D11B79AC2B05D129460322BDE870403C
:10596800FFF764BB29462046FFF7AEFF6968A36AC4
:105978000122D3F89C30090ADAE729462046FFF7C6
:105988006DFAA36A0122D3F89C301146D0E70000D3
:1059980001F00F03022B2DE9F04705460C4604D110
:1059A800BDE8F0470909FFF733BA002955D011F0CF
:1059B800030652D10B792C2B38D18968FFF74EFAA0
:1059C800E668002E49D016F0030846D17768FAB287
:1059D8008E2A334609D13F0A06F1040907F1FF3A36
:1059E800C24510DC013756F827301A79312A12D10E
:1059F80099682846FFF732FAAB6A686ADB6CBDE83B
:105A0800F0470221184759F8041F2846FFF726FADD
:105A180008F10108E4E7322A1FD19968AB6A686A7D
:105A28001B6DBDE8F0470222090918472D2B14D138
:105A38008C6894B163681B0A022B06D0271D636823
:105A4800B6EB132F10D3BDE8F087E368002BF5D031
:105A58009A07F3D11B79AC2BF0D121462846064A88
:105A6800BDE8F047FFF79AB857F8041F2846FFF734
:105A78008FFF0136E3E700BFD42504082DE9F04F76
:105A88000E46016200214270C1603378072B8DB049
:105A98000446154605D0894A0DB0BDE8F04FFFF71A
:105AA8007DB8012A05D0036B021D1B68C06A294610
:105AB80098476378D6F80C80032B10D10BAA46219F
:105AC80008F10C00FEF7ECFB236B0B9A9B68014670
